:04000000BFEF0AF054
:1000080000C01EF001C01DF002C01CF003C01BF0B0
:1000180004C01AF005C019F008C018F009C017F09C
:100028000AC016F00BC015F0E1CF27F0E2CF28F098
:10003800E9CF25F0EACF26F0F3CF23F0F4CF24F070
:10004800F5CF22F0F8CF1FF0F7CF20F0F6CF21F050
:10005800AEEC09F022C0F5FF1FC0F8FF20C0F7FF83
:1000680021C0F6FF23C0F3FF24C0F4FF1EC000F038
:100078001DC001F01CC002F01BC003F01AC004F040
:1000880019C005F018C008F017C009F016C00AF02A
:1000980015C00BF025C0E9FF26C0EAFF27C0E1FF25
:0600A80028C0E2FF110078
:1000AE001E0E716E100E3E6E040E3F6E3EC0E1FFD0
:1000BE003FC0E2FFE69E3EC0E1FF3FC0E2FFE69C8E
:1000CE00040E3E24E16E000E3F20E26EE68C180E0A
:1000DE002F6E040E306E2FC0E1FF30C0E2FFE69EA1
:1000EE002FC0E1FF30C0E2FFE69C040E2F24E16E2C
:1000FE00000E3020E26EE68C020E3E24E16E000E03
:10010E003F20E26E2BC0E6FF2CC0E6FF010E3E2420
:10011E00E16E000E3F20E26E400EE66E3EC0E9FF3D
:10012E003FC0EAFFEECF00F03EC0E1FF3FC0E2FF6E
:10013E00400E0014E66E3EC0E9FF3FC0EAFFEECF70
:10014E0000F03EC0E1FF3FC0E2FF880E0010E66EF9
:10015E003EC029F03FC02AF0040E3E18006E00C0CB
:04016E003EF012004D
:100172000B6A0A6A096A00500402F4CF09F0F3CF4D
:1001820008F001500502F4CF0BF0F3CF0AF0005053
:100192000502F3500926F4500A22E86A0B220150A4
:1001A2000402F3500926F4500A22E86A0B2208C01E
:1001B20000F009C001F00AC002F00BC003F0120007
:1001C2000401286B296B42D0398E28814050010AE4
:1001D200D8B4288350D0398E4ED0398E24BF16D051
:1001E20024C403F00F0E031603C000F0000E016ECC
:1001F2000036009001363C0E0024E96E000E01200C
:10020200EA6EEECF04F0EECF05F015D024C403F071
:100212000F0E031603C000F0000E016E00360090B0
:1002220001362D0E0024E96E000E0120EA6EEECF9B
:1002320004F0EECF05F004C0E9FF05C0EAFFEECFFF
:1002420001F001A402D0010E286F15D020C401F0E4
:100252001F0E01160150000AB7E020C401F01F0E64
:1002620001160150010AB7E020C401F01F0E011669
:100272000150020AB2E039AE07D0280E366E040EE3
:0A028200376E3980020E3A6E12004A
:10028C0004012251010A0FE120C401F01F0E0116D6
:10029C000150000A08E1398E2151030A03E1010ED5
:1002AC00406E01D0406A2251000AD8A48BD020C4E1
:1002BC0001F01F0E01160150020AD8A483D024C4E9
:1002CC0001F00F0E01160150000AD8B47BD0398E04
:1002DC0024BF16D024C403F00F0E031603C000F085
:1002EC00000E016E0036009001363C0E0024E96EC3
:1002FC00000E0120EA6EEECF04F0EECF05F015D023
:10030C0024C403F00F0E031603C000F0000E016EA0
:10031C000036009001362D0E0024E96E000E0120EF
:10032C00EA6EEECF04F0EECF05F02151030A07E19F
:10033C0004C0E1FF05C0E2FF840EE66E43D024C486
:10034C0000F00F0E0016700E026E0F0E036E0050B2
:10035C000226D8B0032A02C0E9FF03C0EAFFFE0E52
:10036C00EE14006EEECF01F0FF0E011602C0E1FF9D
:10037C0003C0E2FF00C0E6FF01C0E6FF24AF11D0CE
:10038C0004C0E1FF05C0E2FFE66A040E0418006E2B
:10039C0000C004F004C0E1FF05C0E2FF400EE66EB1
:1003AC0011D004C0E1FF05C0E2FF880EE66E040E1A
:1003BC000418006E00C004F004C0E1FF05C0E2FFA9
:0603CC00C80EE66E1200EF
:1003D20004012051800AD8A471D0C00E396E64D0B5
:1003E200FE0E006E160E016E000E026E00C036F09A
:1003F20001C037F002C038F0120E3A6E000E3B6EAA
:100402005DD0030E006E000E016E22C404F0000ED9
:10041200056EAEDE690E0024E96E000E0120EA6E62
:10042200EECF36F0EECF37F0EECF38F0020E3624B4
:10043200F66E000E3720F76E000E3820F86E0900B7
:10044200F5CF00F00900F5CF01F000C03AF001C08D
:100452003BF034D02251315C23E3030E006E000ED8
:10046200016E22C404F0000E056E82DE600E0024CE
:10047200E96E000E0120EA6EEECF36F0EECF37F0D5
:10048200EECF38F036C0F6FF37C0F7FF38C0F8FFBE
:100492000900F5CF00F000C03AF0000E3B6E01D02B
:1004A200396A0CD0396A0AD02351010A99E02351E2
:0E04B200020AA7E02351030ACDE0F4D712009E
:1004C000398E716A356A22C434F03450000A03E16F
:0E04D000100E416E03D0200E416EE9DD1200C9
:1004DE0020C401F01F0E01160150010A01E08DD05B
:1004EE0004012451000A01E088D02151060A3FE19F
:1004FE0034D03450010A17E18E0E006E160E016EC6
:10050E00000E026E120E0026000E0122022200C004
:10051E0036F001C037F002C038F0090E3A6E000E08
:10052E003B6EC00E396E23D03450010A12E1DD0E3F
:10053E00006E160E016E000E026E00C036F001C087
:10054E0037F002C038F0210E3A6E000E3B6EC00E30
:10055E00396E0DD0800E396E0AD004012351210A56
:10056E00C8E02351220AE0E02351230AF3E020C41D
:10057E0001F0600E0116050E006E005004E001320F
:10058E00019EFF0FFBD70150010A01E036D022D0A9
:10059E0034D033D05F0E366E000E376E010E3A6ECB
:1005AE00000E3B6EC10E396E28D0800E396E23C4FC
:1005BE005FF023D05E0E366E000E376E010E3A6E71
:1005CE00000E3B6E810E396E18D0800E396E22C42D
:1005DE005EF013D004012151010ADAE02151090A1B
:1005EE00D8E02151020AD6E021510A0ADEE021515B
:0C05FE00030AE0E021510B0AE8E01200C3
:10060A00000E3B5C02E1080E3A5C10E23AC003F0CD
:10061A003BC004F03350000A03E1010E336E05D0EB
:10062A003350010A02E1020E336E04D0080E036E43
:10063A00000E046E2DC0E1FF2EC0E2FFE6922DC02F
:10064A00E1FF2EC0E2FFE6902DC0E9FF2EC0EAFFCF
:10065A00EECF00F02DC0E1FF2EC0E2FF04500010E3
:10066A00E66E010E2D24E16E000E2E20E26E03C00E
:10067A00E6FF03503A5C006E04503B58016E00C01E
:10068A003AF001C03BF0280E4A6E040E4B6E39B0A8
:10069A002FD0035004102BE036C0F6FF37C0F7FF07
:1006AA0038C0F8FF0900F5CF00F04AC0E1FF4BC09F
:1006BA00E2FF00C0E6FF4A4A4B2A010E3624006ECA
:1006CA00000E3720016E000E3820026E00C036F090
:1006DA0001C037F002C038F0010E035C006E000E54
:1006EA000458016E00C003F001C004F0D2D724D030
:1006FA000350041021E036C0E9FF37C0EAFF4AC0C0
:10070A00E1FF4BC0E2FFEECFE6FF4A4A4B2A010E59
:10071A003624006E000E3720016E00C036F001C08C
:10072A0037F0010E035C006E000E0458016E00C023
:0A073A0003F001C004F0DCD7120048
:10074400010E4224E96E000E4320EA6EEECF00F063
:1007540000C002F0000E585C02E10250575C03E254
:1007640057C002F00AD00250575C006E000E585871
:10077400016E00C057F001C058F0036A0250035CD8
:100784001CE2280EE96E040EEA6E0350E926D8B086
:10079400EA2AEECF00F054C0E1FF55C0E2FF00C0EA
:1007A400E6FF010E5424006E000E5520016E00C0B9
:1007B40054F001C055F0032AE1D7000E006E5850E2
:1007C400005C02E15750000828E2010E5224E16E59
:1007D400000E5320E26E080EE66E020E5224E16E05
:1007E400000E5320E26E280EE66E040EE66E42C042
:1007F400E9FF43C0EAFFEECF00F000BC07D052C0CF
:10080400E1FF53C0E2FFC80EE66E06D052C0E1FF1E
:1008140053C0E2FF880EE66E19D0010E5224E16E39
:10082400000E5320E26E080EE66E020E5224E16EB4
:10083400000E5320E26E200EE66E040EE66E52C0E9
:0E084400E1FF53C0E2FF840EE66E569E1200E6
:0E085200160E6F6E9F0E6B6E3B0E696E1200DF
:100860008E0E0001696F160E6A6F000E6B6F100E10
:10087000606F170E616F000E626FB70E636F160E1A
:10088000646F000E656F5A0E666F160E676F000E6E
:04089000686F12007B
:1008940020C401F0600E0116050E006E005004E045
:1008A4000132019EFF0FFBD70150000A01E058D02E
:1008B40034D0398E080E416E53D089DD51D0FEDD1F
:1008C4004FD0340E366E000E376E3980010E3A6EFC
:1008D400398E46D074DC44D0D7DC42D0350E006E5D
:1008E400000E016E24510026D8B0012A00C036F053
:1008F40001C037F03980010E3A6E398E31D0398E0D
:10090400350EE16E000EE26E2451E126D8B0E22AE3
:1009140022C4E6FF25D024D023D004012151050AA6
:10092400C8E02151060AC9E02151090AC8E0215151
:10093400080AC7E02151000ACDE02151010ACCE0A8
:100944002151030AC9E021510A0AC8E021510B0AC6
:10095400D6E02151070ADFE021510C0ADDE0DCD7A3
:0209640012007F
:080966005D5201E0B9DD120051
:10096E00326A2DC0E1FF2EC0E2FFE66A040E2D189A
:10097E00E16E2EC0E2FF000EE21AE66A56BE569EE9
:02098E00120055
:100990006D9839BE49D056AE28D0020E326E010E87
:1009A0002D24E16E000E2E20E26EE66A2DC0E1FFDE
:1009B0002EC0E2FFC80EE66E010E5224E16E000E5C
:1009C0005320E26E080EE66E020E5224E16E000E17
:1009D0005320E26E280EE66E040EE66E52C0E1FF72
:1009E00053C0E2FFC80EE66E1ED0010E5224E16E27
:1009F000000E5320E26E080EE66E020E5224E16EE7
:100A0000000E5320E26E200EE66E040EE66E52C01B
:100A1000E1FF53C0E2FF8C0EE66E2DC0E1FF2EC059
:100A2000E2FF840EE66E7DD056BE7BD0040120AF7F
:100A300051D03B50275D02E13A50265D04E226C4C6
:100A40003AF027C43BF0E1DD010E326E010E522474
:100A5000E16E000E5320E26E080EE66E020E522486
:100A6000E16E000E5320E26E200EE66E040EE66E7E
:100A700052C0E1FF53C0E2FF800EE66E516A010EE4
:100A80004224E16E000E4320E26E080EE66E020E76
:100A90004224E16E000E4320E26E200EE66E040E4C
:100AA000E66E42C0E1FF43C0E2FF840EE66E010E37
:100AB000516E020E2D24E16E000E2E20E26E280EE5
:100AC000E66E040EE66E2DC0E1FF2EC0E2FFC80EFA
:100AD000E66E27D0020E326E010E2D24E16E000E5E
:100AE0002E20E26EE66A2DC0E1FF2EC0E2FFC80EA6
:100AF000E66E010E5224E16E000E5320E26E080EE7
:100B0000E66E020E5224E16E000E5320E26E280EB5
:100B1000E66E040EE66E52C0E1FF53C0E2FFC80E5F
:040B2000E66E12006B
:100B2400040E2D18006E00C02DF04150080A0AE191
:100B340022C46EFF6E50000803E2100E416E02D014
:100B4400040E416E3250010A3AE1020E2D24E16E88
:100B5400000E2E20E26E280EE66E040EE66E53DDC5
:100B64003350020A07E12DC0E1FF2EC0E2FF840EDC
:100B7400E66E24D0040E2D18006E00C02DF02DC09A
:100B8400E9FF2EC0EAFFEECF00F000BC0CD0040E4B
:100B94002D18006E00C02DF02DC0E1FF2EC0E2FF25
:100BA400C80EE66E0BD0040E2D18006E00C02DF09A
:100BB4002DC0E1FF2EC0E2FF880EE66E01D0D5DE27
:020BC40012001D
:100BC6002DC0E9FF2EC0EAFFEECF00F000AE05D043
:100BD6002DC0E1FF2EC0E2FFE66A336A326A3A6A46
:0C0BE6003B6A396A54DEBCDED0DE12002F
:100BF20070A019D042C0E9FF43C0EAFFEECF01F076
:100C02000150800A0FE12DC0E9FF2EC0EAFFEECFAE
:100C120001F00150840A06E142C0E1FF43C0E2FF55
:0C0C22008C0EE66E7090DF0E681612005B
:0A0C2E006984EF0E68166D82120053
:040C3800A19A12006B
:100C3C0011DE296A2A6A486A496A6A6A686A03DEA6
:100C4C006D8C6E6A716A6D9C4D6A4E6A000E4E5CBC
:100C5C0002E1080E4D5C17E24DC000F04EC001F0F1
:100C6C00003600900136003600900136000E00244C
:100C7C00E16E040E0120E26EE66AE66AE66AE66A56
:100C8C004D4A4E2AE3D7160E706E68A603D0F70EA7
:100C9C006816FBD7396A566A576A586A6D98080EF7
:0C0CAC002D6E040E2E6E346A416A120098
:100CB8003250020A02E142DD1ED055DE5150000AD0
:100CC80019E1010E5224E16E000E5320E26E080E67
:100CD800E66E020E5224E16E000E5320E26E200EE4
:100CE800E66E040EE66E52C0E1FF53C0E2FF8C0EC2
:080CF800E66E01D0516A120002
:100D00006D92699468A403D0FB0E6816FBD712009D
:100D1000000E00017B1902E1000E7A1902E1016A5E
:100D20000AD07AC0E9FF7BC0EAFFEECF00F0000EE8
:0C0D300000BE010E016E01C000F01200B8
:0A0D3C00D08EA28AA08AF28E120067
:100D460000017D6B7E6B7F6B020E7A25F66E000EC0
:100D56007B21F76E000E7C21F86E0900F5CF05F0B9
:100D6600030E7A25F66E000E7B21F76E000E7C21AF
:100D7600F86E0900F5CF00F000C003F0000E046E17
:100D860003C001F0006A05500024066E000E012023
:100D9600076E7AC008F07BC009F07CC00AF0010E2D
:100DA6000824F66E000E0920F76E000E0A20F86E73
:100DB6000900F5CF01F00150020A1BE1060E0824D6
:100DC600F66E000E0920F76E000E0A20F86E090076
:100DD600F5CF01F001507D5D0CE2060E0824F66E9B
:100DE600000E0920F76E000E0A20F86E0900F5CFF6
:100DF6007DF0010E0824F66E000E0920F76E000E37
:100E06000A20F86E0900F5CF01F00150040A1BE133
:100E1600080E0824F66E000E0920F76E000E0A2052
:100E2600F86E0900F5CF01F001507D5D0CE2080E69
:100E36000824F66E000E0920F76E000E0A20F86EE2
:100E46000900F5CF7DF008C0F6FF09C0F7FF0AC01C
:100E5600F8FF0900F5CF00F000507E25016E000E68
:100E66007F21026E01C07EF002C07FF00750025C57
:100E760002E10650015C01E30FD008C0F6FF09C08D
:100E8600F7FF0AC0F8FF0900F5CF00F0005008266A
:0E0E9600000E09220A2283D77DC000F0120050
:100EA4004150000A09E16D6A696AD1DC6DB602D06D
:100EB4006D86FCD7010E416E4150010A08E16DBAFE
:100EC40006D0686A696A69806988020E416E68A4FE
:100ED40005D069A403D0FB0E681610DF6DA202D002
:100EE400A9DED6D068A018D069A016D0A5DE040E5D
:100EF400416E200E0401026F040E036F080E016F91
:100F0400000E0015006E00C000F48C0E0011006E7F
:100F140000C000F4FE0E681668A805D069A803D0C6
:100F240084DEEF0E681668AC04D069AC02D0BF0E44
:100F3400681668AA03D069AA01D059DE68A202D053
:100F440069B26A6A040E415C02E274DEA1D069A649
:100F54009ED000017B6B040E7B5DD8B098D068A650
:100F640092D06CCF4CF0F70E6816780E4C14016ECC
:100F74000150000AD8A486D0FD0E4C14016E026AFA
:100F8400FF0E0216000E021802E1000E01186CE1B9
:100F94007E0E4C14016E01C003F00332039E03C0A5
:100FA40000F0000E016E003600900136003600900D
:100FB4000136000E0024026E040E0120036E02C0EE
:100FC40042F003C043F002C052F003C053F0040ED9
:100FD4005218006E00C052F002C0E9FF03C0EAFFDD
:100FE400EECF00F000C001F03C0E01160132019E6C
:100FF4000132019E01500D0A35E1020E4224E96ED0
:10100400000E4320EA6EEECF01F0EECF02F0025064
:10101400040A02E1280E011823E10001020E422411
:10102400E16E000E4320E26E200EE66E040EE66EC4
:101034007A6B080E7A5D14E2200EE16E040EE26E05
:101044007A51E126D8B0E22A280EE96E040EEA6E3F
:101054007A51E926D8B0EA2AEECFE6FF7A2BE9D70F
:10106400B0DD01D027DE0DD0FD0E4C14016E026AF6
:10107400FF0E0216000E021802E1040E011801E12F
:101084004FDD00D001D003D000017B2B64D7D2DD2B
:02109400120048
:10109600FE0E006E160E016E000E026E0E0E00247F
:1010A600F66E000E0120F76E000E0220F86E0900A3
:1010B600F5CF03F003C004F00F0E0024F66E000E09
:1010C6000120F76E000E0220F86E0900F5CF01F040
:1010D6000150035C12E2FE0E006E160E016E000E4B
:1010E600026E0F0E0024F66E000E0120F76E000E43
:1010F6000220F86E0900F5CF04F0FE0E006E160E03
:10110600016E000E026E100E0024F66E000E012017
:10111600F76E000E0220F86E0900F5CF01F00150BF
:10112600045C12E2FE0E006E160E016E000E026EDA
:10113600100E0024F66E000E0120F76E000E02203F
:0E114600F86E0900F5CF04F004C000F01200AE
:1011540000017B51000A12E07AC000F0000E016E1B
:101164000036009001362D0E0024E96E000E012099
:10117400EA6EEECF04F0EECF05F011D07AC000F0A5
:10118400000E016E0036009001363C0E0024E96E1C
:10119400000E0120EA6EEECF04F0EECF05F0020E51
:1011A4000424E16E000E0520E26E7CC0E6FF7DC0E3
:1011B400E6FF010E0424E16E000E0520E26E7EC0FF
:1011C400E6FF04C0E9FF05C0EAFFEECF00F004C06B
:1011D400E1FF05C0E2FF400E0014E66E04C0E9FF23
:1011E40005C0EAFFEECF00F004C0E1FF05C0E2FF56
:1011F400880E0010E66E7B51000A1BE07AC000F0F6
:10120400000E016E0036009001362D0E0024026E91
:10121400000E0120036E02C0E9FF03C0EAFF040EC2
:10122400EE18006E02C0E1FF03C0E2FF00C0E6FF5B
:101234001AD07AC000F0000E016E0036009001361C
:101244003C0E0024026E000E0120036E02C0E9FF72
:1012540003C0EAFF040EEE18006E02C0E1FF03C0F3
:10126400E2FF00C0E6FF04C000F005C001F0120078
:1012740010DF00C074F08E0E00017A6F160E7B6FC3
:10128400000E7C6F5EDD00C075F07451005C03E2FB
:0C12940074C000F002D075C000F0120021
:1012A0004150000A0BE16D6A696A29EC04F046DDE1
:0E12B0006DB602D06D86FCD7010E416E1200A5
:1012BE00200E415C03E36DB201D002D0006A46D02D
:1012CE0048C07AF049C07BF01CDD00523EE177C089
:1012DE007AF0010E7B6F74C07CF075C07DF076C025
:1012EE007EF031DF00C048F001C049F0446A456A23
:1012FE00466A476A48C07AF049C07BF002DD005268
:10130E000EE0010E016E0150000A01E1C4DD4450F1
:10131E0045104610471002E0006A18D0EBD748C0BF
:10132E0078F049C079F0000E491802E1000E481815
:10133E000AE0010E00017825E96E000E7921EA6EB1
:0E134E00EECF00F003D0006A01D0006A12005A
:10135C004150010A07E16DBA05D0686A6980698855
:10136C00020E416E68A405D069A403D0FB0E68166A
:10137C00C1DC6DA202D05ADCDAD068A018D069A00A
:10138C0016D056DC040E416E200E0401026F040EC2
:10139C00036F080E016F000E0015006E00C000F404
:1013AC008C0E0011006E00C000F4FE0E681668A8CA
:1013BC0005D069A803D035DCEF0E681668AC04D0F4
:1013CC0069AC02D0BF0E681668AA03D069AA01D016
:1013DC000ADC68A202D069B26A6A040E415C02E2BD
:1013EC0025DCA5D069A6A1D00001816B040E815D1E
:1013FC00D8B09BD068A695D06CCF4CF0F70E681681
:10140C00780E4C14016E0150000AD8A489D0FD0E40
:10141C004C14016E026AFF0E0216000E021802E155
:10142C00000E01186EE17E0E4C14016E01C003F02B
:10143C000332039E03C000F0000E016E00360090D4
:10144C000136003600900136000E0024026E040EA8
:10145C000120036E02C042F003C043F002C052F000
:10146C0003C053F0040E5218006E00C052F002C0BC
:10147C00E9FF03C0EAFFEECF00F000C001F03C0E24
:10148C0001160132019E0132019E01500D0A36E116
:10149C00020E4224E96E000E4320EA6EEECF01F0FC
:1014AC00EECF02F00250040A02E1280E011823E1EB
:1014BC000001020E4224E16E000E4320E26E200E6B
:1014CC00E66E040EE66E806B080E805D14E2200E54
:1014DC00E16E040EE26E8051E126D8B0E22A280EAD
:1014EC00E96E040EEA6E8051E926D8B0EA2AEECFF6
:1014FC00E6FF802BE9D7E3EC05F002D05CEC06F0BC
:10150C000ED0FD0E4C14016E026AFF0E0216000E78
:10151C00021802E1040E011802E192EC05F000D071
:10152C0001D003D00001812B61D71CEC06F0120016
:10153C009BDE00C031F0010E5D6E70C02BF071C0EF
:10154C002CF072C04FF073C050F01EEC06F0010E80
:0C155C00016E0150010A01E19DDE120049
:1015680070C074F071C075F072C076F0010E0001A1
:06157800776FA1DE1200F6
:10157E00FF0E00016D6FFF0E6E6FFF0E6F6F0F0E81
:10158E00C112070EB412FF0E926EFF0E936EFF0E77
:10159E00956E806A816A836A000E706F050E716F98
:1015AE00400E726F050E736FC2DF00016C6B400E42
:1015BE006C5D0BE2400EE16E050EE26E6C51E126A3
:1015CE00D8B0E22AE66A6C2BF2D7070E0B6E170E16
:1015DE000C6E6A0E0D6E0D2EFED70C2EFCD70B2E3A
:1015EE00FAD70000000180506D1907E181506E1985
:1015FE0004E183506F1901E11AD080CF6DF081CFD5
:10160E006EF083CF6FF0C10E0501406F80CF41F5B4
:10161E0081CF42F583CF43F5400E0001706F050E6A
:10162E00716F400E726F99DF005201E1F5D7070E10
:10163E000B6E170E0C6E6A0E0D6E0D2EFED70C2E47
:0C164E00FCD70B2EFAD70000CDD7FFD739
:10165A0034034D00750073006900630061006C007B
:10166A00200050006C0061006E00740073002000BE
:10167A00530065006E0073006F00720020004B007B
:04168A00690074007F
:10168E0009022900010100C0320904000002030012
:10169E0000000921010100012221000705810340FC
:0916AE00000107050103400001E1
:1016B7002603440069006C007300680061006E0037
:1016C7002000520020004A006100790061006B0091
:0616D7006F0064007900C1
:1016DD000600FF0901A10119012940150026FF008F
:1016ED0075089540810219012940750895409102B0
:0116FD00C02C
:1016FE001201000200000008841915000100010209
:02170E000001D8
:0417100004030904C1
:020000040030CA
:0E000000240E391EFF8181FF0FC00FE00F405C
:00000001FF
